{
  "contractName": "investment",
  "abi": [
    {
      "inputs": [],
      "stateMutability": "nonpayable",
      "type": "constructor"
    },
    {
      "anonymous": false,
      "inputs": [
        {
          "indexed": false,
          "internalType": "uint256",
          "name": "depositAmount",
          "type": "uint256"
        },
        {
          "indexed": false,
          "internalType": "uint256",
          "name": "balanceAmount",
          "type": "uint256"
        }
      ],
      "name": "BalanceChange",
      "type": "event"
    },
    {
      "inputs": [],
      "name": "getWallet",
      "outputs": [
        {
          "internalType": "uint256",
          "name": "_balanceAmount",
          "type": "uint256"
        },
        {
          "internalType": "uint256",
          "name": "_depositValue",
          "type": "uint256"
        }
      ],
      "stateMutability": "view",
      "type": "function",
      "constant": true
    },
    {
      "inputs": [
        {
          "internalType": "uint256",
          "name": "_deposit",
          "type": "uint256"
        }
      ],
      "name": "addDepositAmount",
      "outputs": [],
      "stateMutability": "nonpayable",
      "type": "function"
    },
    {
      "inputs": [
        {
          "internalType": "uint256",
          "name": "_withdraw",
          "type": "uint256"
        }
      ],
      "name": "withdrawAmount",
      "outputs": [],
      "stateMutability": "nonpayable",
      "type": "function"
    }
  ],
  "bytecode": "0x608060405234801561001057600080fd5b50600c600281905550600380819055506104098061002f6000396000f3fe608060405234801561001057600080fd5b50600436106100415760003560e01c80630562b9f7146100465780631329960414610062578063a59c124514610081575b600080fd5b610060600480360381019061005b9190610238565b61009d565b005b61006a610152565b604051610078929190610274565b60405180910390f35b61009b60048036038101906100969190610238565b610166565b005b80600054116100e1576040517f08c379a00000000000000000000000000000000000000000000000000000000081526004016100d8906102fa565b60405180910390fd5b806000808282546100f29190610349565b92505081905550806001600082825461010b9190610349565b925050819055507ff51af9a543295074204c9bb2d36c6f10cb6177e660fb80169592be98b37a4a95600154600054604051610147929190610274565b60405180910390a150565b600080600054915081600154915091509091565b8060016000828254610178919061037d565b9250508190555080600080828254610190919061037d565b92505081905550600254600154106101bd576003546000808282546101b5919061037d565b925050819055505b7ff51af9a543295074204c9bb2d36c6f10cb6177e660fb80169592be98b37a4a956001546000546040516101f2929190610274565b60405180910390a150565b600080fd5b6000819050919050565b61021581610202565b811461022057600080fd5b50565b6000813590506102328161020c565b92915050565b60006020828403121561024e5761024d6101fd565b5b600061025c84828501610223565b91505092915050565b61026e81610202565b82525050565b60006040820190506102896000830185610265565b6102966020830184610265565b9392505050565b600082825260208201905092915050565b7f4e6f7420656e6f7567682062616c616e63650000000000000000000000000000600082015250565b60006102e460128361029d565b91506102ef826102ae565b602082019050919050565b60006020820190508181036000830152610313816102d7565b9050919050565b7f4e487b7100000000000000000000000000000000000000000000000000000000600052601160045260246000fd5b600061035482610202565b915061035f83610202565b9250828210156103725761037161031a565b5b828203905092915050565b600061038882610202565b915061039383610202565b9250827fffffffffffffffffffffffffffffffffffffffffffffffffffffffffffffffff038211156103c8576103c761031a565b5b82820190509291505056fea264697066735822122077b2e1a5675614c924f32fb8d71200c298fb59d1c81f384267a69d2b767f448064736f6c634300080e0033",
  "immutableReferences": {},
  "source": "// SPDX-License-Identifier: MIT\npragma solidity >=0.4.22 <0.9.0;\n\ncontract investment {\n\n  uint balanceAmount;\n  uint depositValue;\n  uint thresholdAmount;\n  uint returnOnInvesment;\n\n  event BalanceChange(uint depositAmount, uint balanceAmount);\n\n  constructor() {\n    thresholdAmount = 12;\n    returnOnInvesment = 3;\n  }\n\n  function getWallet() public view returns(uint _balanceAmount, uint _depositValue) {\n    return (_balanceAmount = balanceAmount, _depositValue = depositValue);\n  }\n\n  function addDepositAmount(uint _deposit) public {\n    depositValue += _deposit;\n    balanceAmount += _deposit;\n\n    if(depositValue >= thresholdAmount) {\n      balanceAmount += returnOnInvesment;\n    }\n    emit BalanceChange(depositValue, balanceAmount);\n\n  }\n\n  function withdrawAmount(uint _withdraw) public {\n    require(balanceAmount > _withdraw, 'Not enough balance');\n    balanceAmount -= _withdraw;\n    depositValue -= _withdraw;\n\n    emit BalanceChange(depositValue, balanceAmount);\n  }\n\n\n}\n",
  "sourcePath": "/Users/devrafx/Projects/dapp_personal_wallet/contracts/Investment.sol",
  "compiler": {
    "name": "solc",
    "version": "0.8.14+commit.80d49f37.Emscripten.clang"
  },
  "schemaVersion": "3.4.7",
  "updatedAt": "2022-06-07T23:11:48.321Z",
  "networkType": "ethereum",
  "devdoc": {
    "kind": "dev",
    "methods": {},
    "version": 1
  },
  "userdoc": {
    "kind": "user",
    "methods": {},
    "version": 1
  }
}